{
  "contractName": "Faucet2",
  "abi": [
    {
      "anonymous": false,
      "inputs": [
        {
          "indexed": true,
          "internalType": "address",
          "name": "_to",
          "type": "address"
        },
        {
          "indexed": true,
          "internalType": "address",
          "name": "_from",
          "type": "address"
        },
        {
          "indexed": false,
          "internalType": "uint256",
          "name": "_oldAllowance",
          "type": "uint256"
        },
        {
          "indexed": false,
          "internalType": "uint256",
          "name": "newAllowance",
          "type": "uint256"
        }
      ],
      "name": "AllowanceChanged",
      "type": "event"
    },
    {
      "anonymous": false,
      "inputs": [
        {
          "indexed": false,
          "internalType": "address",
          "name": "sender",
          "type": "address"
        },
        {
          "indexed": false,
          "internalType": "uint256",
          "name": "value",
          "type": "uint256"
        }
      ],
      "name": "AlreadyFunded",
      "type": "event"
    },
    {
      "anonymous": false,
      "inputs": [
        {
          "indexed": false,
          "internalType": "address",
          "name": "sender",
          "type": "address"
        },
        {
          "indexed": false,
          "internalType": "uint256",
          "name": "_amount",
          "type": "uint256"
        }
      ],
      "name": "MoneyReceived",
      "type": "event"
    },
    {
      "anonymous": false,
      "inputs": [
        {
          "indexed": false,
          "internalType": "address",
          "name": "sender",
          "type": "address"
        },
        {
          "indexed": false,
          "internalType": "uint256",
          "name": "_amount",
          "type": "uint256"
        }
      ],
      "name": "MoneySent",
      "type": "event"
    },
    {
      "anonymous": false,
      "inputs": [
        {
          "indexed": false,
          "internalType": "address",
          "name": "sender",
          "type": "address"
        },
        {
          "indexed": false,
          "internalType": "uint256",
          "name": "value",
          "type": "uint256"
        },
        {
          "indexed": false,
          "internalType": "bytes",
          "name": "data",
          "type": "bytes"
        }
      ],
      "name": "RunningFallback",
      "type": "event"
    },
    {
      "anonymous": false,
      "inputs": [
        {
          "indexed": true,
          "internalType": "address",
          "name": "_from",
          "type": "address"
        },
        {
          "indexed": true,
          "internalType": "address",
          "name": "_to",
          "type": "address"
        },
        {
          "indexed": false,
          "internalType": "uint256",
          "name": "_value",
          "type": "uint256"
        }
      ],
      "name": "Transfer",
      "type": "event"
    },
    {
      "stateMutability": "payable",
      "type": "fallback",
      "payable": true
    },
    {
      "inputs": [
        {
          "internalType": "uint256",
          "name": "",
          "type": "uint256"
        }
      ],
      "name": "allFundersAlternative",
      "outputs": [
        {
          "internalType": "address",
          "name": "",
          "type": "address"
        }
      ],
      "stateMutability": "view",
      "type": "function",
      "constant": true
    },
    {
      "inputs": [
        {
          "internalType": "uint256",
          "name": "",
          "type": "uint256"
        }
      ],
      "name": "allFundersWithStruct",
      "outputs": [
        {
          "internalType": "address",
          "name": "addr",
          "type": "address"
        },
        {
          "internalType": "uint256",
          "name": "amount",
          "type": "uint256"
        }
      ],
      "stateMutability": "view",
      "type": "function",
      "constant": true
    },
    {
      "inputs": [
        {
          "internalType": "address",
          "name": "",
          "type": "address"
        }
      ],
      "name": "balances",
      "outputs": [
        {
          "internalType": "uint256",
          "name": "",
          "type": "uint256"
        }
      ],
      "stateMutability": "view",
      "type": "function",
      "constant": true
    },
    {
      "inputs": [],
      "name": "counter",
      "outputs": [
        {
          "internalType": "int256",
          "name": "",
          "type": "int256"
        }
      ],
      "stateMutability": "view",
      "type": "function",
      "constant": true
    },
    {
      "inputs": [],
      "name": "funds",
      "outputs": [
        {
          "internalType": "uint256",
          "name": "",
          "type": "uint256"
        }
      ],
      "stateMutability": "view",
      "type": "function",
      "constant": true
    },
    {
      "inputs": [],
      "name": "lastFunder",
      "outputs": [
        {
          "internalType": "address",
          "name": "",
          "type": "address"
        }
      ],
      "stateMutability": "view",
      "type": "function",
      "constant": true
    },
    {
      "inputs": [],
      "name": "lastFunderPayable",
      "outputs": [
        {
          "internalType": "address payable",
          "name": "",
          "type": "address"
        }
      ],
      "stateMutability": "view",
      "type": "function",
      "constant": true
    },
    {
      "inputs": [],
      "name": "numOfFunders",
      "outputs": [
        {
          "internalType": "uint256",
          "name": "",
          "type": "uint256"
        }
      ],
      "stateMutability": "view",
      "type": "function",
      "constant": true
    },
    {
      "inputs": [],
      "name": "owner",
      "outputs": [
        {
          "internalType": "address",
          "name": "",
          "type": "address"
        }
      ],
      "stateMutability": "view",
      "type": "function",
      "constant": true
    },
    {
      "inputs": [],
      "name": "strHello",
      "outputs": [
        {
          "internalType": "bytes",
          "name": "",
          "type": "bytes"
        }
      ],
      "stateMutability": "view",
      "type": "function",
      "constant": true
    },
    {
      "inputs": [],
      "name": "strWorld",
      "outputs": [
        {
          "internalType": "string",
          "name": "",
          "type": "string"
        }
      ],
      "stateMutability": "view",
      "type": "function",
      "constant": true
    },
    {
      "inputs": [],
      "name": "testNum",
      "outputs": [
        {
          "internalType": "uint256",
          "name": "",
          "type": "uint256"
        }
      ],
      "stateMutability": "view",
      "type": "function",
      "constant": true
    },
    {
      "inputs": [],
      "name": "yes",
      "outputs": [
        {
          "internalType": "bool",
          "name": "",
          "type": "bool"
        }
      ],
      "stateMutability": "view",
      "type": "function",
      "constant": true
    },
    {
      "stateMutability": "payable",
      "type": "receive",
      "payable": true
    },
    {
      "inputs": [],
      "name": "getBalance",
      "outputs": [
        {
          "internalType": "uint256",
          "name": "",
          "type": "uint256"
        }
      ],
      "stateMutability": "view",
      "type": "function",
      "constant": true
    },
    {
      "inputs": [],
      "name": "addFunds",
      "outputs": [],
      "stateMutability": "payable",
      "type": "function",
      "payable": true
    },
    {
      "inputs": [
        {
          "internalType": "uint256",
          "name": "amount",
          "type": "uint256"
        }
      ],
      "name": "withdraw",
      "outputs": [],
      "stateMutability": "nonpayable",
      "type": "function"
    },
    {
      "inputs": [],
      "name": "abstractFunctionToImplement",
      "outputs": [
        {
          "internalType": "bytes32",
          "name": "",
          "type": "bytes32"
        }
      ],
      "stateMutability": "pure",
      "type": "function",
      "constant": true
    },
    {
      "inputs": [],
      "name": "pureFn",
      "outputs": [
        {
          "internalType": "uint256",
          "name": "",
          "type": "uint256"
        }
      ],
      "stateMutability": "pure",
      "type": "function",
      "constant": true
    },
    {
      "inputs": [],
      "name": "viewFn",
      "outputs": [
        {
          "internalType": "uint256",
          "name": "",
          "type": "uint256"
        }
      ],
      "stateMutability": "view",
      "type": "function",
      "constant": true
    },
    {
      "inputs": [],
      "name": "getAllFunders",
      "outputs": [
        {
          "internalType": "address[]",
          "name": "",
          "type": "address[]"
        }
      ],
      "stateMutability": "view",
      "type": "function",
      "constant": true
    },
    {
      "inputs": [
        {
          "internalType": "uint8",
          "name": "i",
          "type": "uint8"
        }
      ],
      "name": "getFunderAtIndex",
      "outputs": [
        {
          "internalType": "address",
          "name": "",
          "type": "address"
        }
      ],
      "stateMutability": "view",
      "type": "function",
      "constant": true
    },
    {
      "inputs": [
        {
          "internalType": "address",
          "name": "newOwner",
          "type": "address"
        }
      ],
      "name": "transferOwnership",
      "outputs": [],
      "stateMutability": "nonpayable",
      "type": "function"
    },
    {
      "inputs": [],
      "name": "getContractBalance",
      "outputs": [
        {
          "internalType": "uint256",
          "name": "",
          "type": "uint256"
        }
      ],
      "stateMutability": "view",
      "type": "function",
      "constant": true
    }
  ],
  "bytecode": "0x6080604052336000806101000a81548173ffffffffffffffffffffffffffffffffffffffff021916908373ffffffffffffffffffffffffffffffffffffffff1602179055506103e86002557ffffffffffffffffffffffffffffffffffffffffffffffffffffffffffffffff66003556040518060400160405280600581526020017f68656c6c6f000000000000000000000000000000000000000000000000000000815250600b9080519060200190620000bb92919062000170565b506040518060400160405280600581526020017f776f726c64000000000000000000000000000000000000000000000000000000815250600c90805190602001906200010992919062000201565b506001600d60006101000a81548160ff0219169083151502179055506002600f60006101000a81548160ff021916908360038111156200014e576200014d620002b1565b5b02179055503480156200016057600080fd5b506103e860018190555062000344565b8280546200017e906200030f565b90600052602060002090601f016020900481019282620001a25760008555620001ee565b82601f10620001bd57805160ff1916838001178555620001ee565b82800160010185558215620001ee579182015b82811115620001ed578251825591602001919060010190620001d0565b5b509050620001fd919062000292565b5090565b8280546200020f906200030f565b90600052602060002090601f0160209004810192826200023357600085556200027f565b82601f106200024e57805160ff19168380011785556200027f565b828001600101855582156200027f579182015b828111156200027e57825182559160200191906001019062000261565b5b5090506200028e919062000292565b5090565b5b80821115620002ad57600081600090555060010162000293565b5090565b7f4e487b7100000000000000000000000000000000000000000000000000000000600052602160045260246000fd5b7f4e487b7100000000000000000000000000000000000000000000000000000000600052602260045260246000fd5b600060028204905060018216806200032857607f821691505b6020821081036200033e576200033d620002e0565b5b50919050565b6118e680620003546000396000f3fe6080604052600436106101445760003560e01c80636bb5e510116100b6578063ae28f1ed1161006f578063ae28f1ed146104b2578063af7f2c9b146104dd578063c89f2ce414610508578063d77a80a814610533578063ecbefee91461055e578063f2fde38b1461059c57610184565b80636bb5e510146103bf5780636f9fb98a146103fc5780636fbbb55d146104275780637b53f721146104525780638da5cb5b1461047d578063a26759cb146104a857610184565b80634c6c9b78116101085780634c6c9b78146102bd5780635832f0cc146102e857806361bc221a1461031357806364bb63541461033e5780636523261d14610369578063671ebb981461039457610184565b80630a93cf33146101c457806312065fe01461020157806327e235e31461022c5780632e1a7d4d1461026957806334032ae51461029257610184565b36610184577f27b15ed4cf832749ed39f33a64e4707ed60a761485e41ffec7343ecaddc0c02a333460405161017a929190611037565b60405180910390a1005b7f231d551cbf51b8a860de8a0a3ce03fa47bf9dac9e92f33e07f65bfa8b460947833346000366040516101ba94939291906110be565b60405180910390a1005b3480156101d057600080fd5b506101eb60048036038101906101e6919061113c565b6105c5565b6040516101f89190611169565b60405180910390f35b34801561020d57600080fd5b50610216610605565b6040516102239190611184565b60405180910390f35b34801561023857600080fd5b50610253600480360381019061024e91906111cb565b61060d565b6040516102609190611184565b60405180910390f35b34801561027557600080fd5b50610290600480360381019061028b9190611224565b610625565b005b34801561029e57600080fd5b506102a76107db565b6040516102b49190611272565b60405180910390f35b3480156102c957600080fd5b506102d2610801565b6040516102df91906112a8565b60405180910390f35b3480156102f457600080fd5b506102fd610814565b60405161030a919061133a565b60405180910390f35b34801561031f57600080fd5b506103286108a2565b6040516103359190611375565b60405180910390f35b34801561034a57600080fd5b506103536108a8565b60405161036091906113a9565b60405180910390f35b34801561037557600080fd5b5061037e6108d0565b60405161038b9190611419565b60405180910390f35b3480156103a057600080fd5b506103a961095e565b6040516103b69190611184565b60405180910390f35b3480156103cb57600080fd5b506103e660048036038101906103e19190611224565b610968565b6040516103f39190611169565b60405180910390f35b34801561040857600080fd5b506104116109a7565b60405161041e9190611184565b60405180910390f35b34801561043357600080fd5b5061043c6109af565b60405161044991906114f9565b60405180910390f35b34801561045e57600080fd5b50610467610aa9565b6040516104749190611184565b60405180910390f35b34801561048957600080fd5b50610492610ab2565b60405161049f9190611169565b60405180910390f35b6104b0610ad6565b005b3480156104be57600080fd5b506104c7610e4d565b6040516104d49190611184565b60405180910390f35b3480156104e957600080fd5b506104f2610e53565b6040516104ff9190611184565b60405180910390f35b34801561051457600080fd5b5061051d610e59565b60405161052a9190611184565b60405180910390f35b34801561053f57600080fd5b50610548610e5f565b6040516105559190611169565b60405180910390f35b34801561056a57600080fd5b5061058560048036038101906105809190611224565b610e85565b604051610593929190611037565b60405180910390f35b3480156105a857600080fd5b506105c360048036038101906105be91906111cb565b610ec9565b005b6000600960008360ff16815260200190815260200160002060009054906101000a900473ffffffffffffffffffffffffffffffffffffffff169050919050565b600047905090565b60086020528060005260406000206000915090505481565b8067016345785d8a0000811115610671576040517f08c379a00000000000000000000000000000000000000000000000000000000081526004016106689061158d565b60405180910390fd5b6000600760003373ffffffffffffffffffffffffffffffffffffffff1673ffffffffffffffffffffffffffffffffffffffff16815260200190815260200160002060006101000a81548160ff02191690831515021790555081600860003373ffffffffffffffffffffffffffffffffffffffff1673ffffffffffffffffffffffffffffffffffffffff1681526020019081526020016000205461071491906115dc565b600860003373ffffffffffffffffffffffffffffffffffffffff1673ffffffffffffffffffffffffffffffffffffffff168152602001908152602001600020819055503373ffffffffffffffffffffffffffffffffffffffff166108fc839081150290604051600060405180830381858888f1935050505015801561079d573d6000803e3d6000fd5b507f7f51d406915971d4ac1c91af96be5187ea6ab64753785aad519a533def80a41e33836040516107cf929190611037565b60405180910390a15050565b600660009054906101000a900473ffffffffffffffffffffffffffffffffffffffff1681565b600d60009054906101000a900460ff1681565b600b80546108219061163f565b80601f016020809104026020016040519081016040528092919081815260200182805461084d9061163f565b801561089a5780601f1061086f5761010080835404028352916020019161089a565b820191906000526020600020905b81548152906001019060200180831161087d57829003601f168201915b505050505081565b60035481565b60007f48656c6c6f210000000000000000000000000000000000000000000000000000905090565b600c80546108dd9061163f565b80601f01602080910402602001604051908101604052809291908181526020018280546109099061163f565b80156109565780601f1061092b57610100808354040283529160200191610956565b820191906000526020600020905b81548152906001019060200180831161093957829003601f168201915b505050505081565b6000600254905090565b600a818154811061097857600080fd5b906000526020600020016000915054906101000a900473ffffffffffffffffffffffffffffffffffffffff1681565b600047905090565b6060600060045467ffffffffffffffff8111156109cf576109ce611670565b5b6040519080825280602002602001820160405280156109fd5781602001602082028036833780820191505090505b50905060005b600454811015610aa1576009600082815260200190815260200160002060009054906101000a900473ffffffffffffffffffffffffffffffffffffffff16828281518110610a5457610a5361169f565b5b602002602001019073ffffffffffffffffffffffffffffffffffffffff16908173ffffffffffffffffffffffffffffffffffffffff16815250508080610a99906116ce565b915050610a03565b508091505090565b60006004905090565b60008054906101000a900473ffffffffffffffffffffffffffffffffffffffff1681565b60003411610b19576040517f08c379a0000000000000000000000000000000000000000000000000000000008152600401610b1090611762565b60405180910390fd5b600760003373ffffffffffffffffffffffffffffffffffffffff1673ffffffffffffffffffffffffffffffffffffffff16815260200190815260200160002060009054906101000a900460ff1615610ba6576040517f08c379a0000000000000000000000000000000000000000000000000000000008152600401610b9d906117ce565b60405180910390fd5b7fd7d993c2ff34d630513d78507a9a8139d515b2247f3feebfff294c6f08f045dc33600454604051610bd9929190611037565b60405180910390a1600060046000815480929190610bf6906116ce565b9190505590506001600760003373ffffffffffffffffffffffffffffffffffffffff1673ffffffffffffffffffffffffffffffffffffffff16815260200190815260200160002060006101000a81548160ff02191690831515021790555034600860003373ffffffffffffffffffffffffffffffffffffffff1673ffffffffffffffffffffffffffffffffffffffff16815260200190815260200160002081905550336009600083815260200190815260200160002060006101000a81548173ffffffffffffffffffffffffffffffffffffffff021916908373ffffffffffffffffffffffffffffffffffffffff16021790555060405180604001604052803373ffffffffffffffffffffffffffffffffffffffff16815260200134815250600e600083815260200190815260200160002060008201518160000160006101000a81548173ffffffffffffffffffffffffffffffffffffffff021916908373ffffffffffffffffffffffffffffffffffffffff160217905550602082015181600101559050506000600e60008381526020019081526020016000209050600134610da091906117ee565b81600101819055506000600e60008481526020019081526020016000206040518060400160405290816000820160009054906101000a900473ffffffffffffffffffffffffffffffffffffffff1673ffffffffffffffffffffffffffffffffffffffff1673ffffffffffffffffffffffffffffffffffffffff1681526020016001820154815250509050600134610e3791906117ee565b816020018181525050610e48610f9a565b505050565b60015481565b60045481565b60025481565b600560019054906101000a900473ffffffffffffffffffffffffffffffffffffffff1681565b600e6020528060005260406000206000915090508060000160009054906101000a900473ffffffffffffffffffffffffffffffffffffffff16908060010154905082565b60008054906101000a900473ffffffffffffffffffffffffffffffffffffffff1673ffffffffffffffffffffffffffffffffffffffff163373ffffffffffffffffffffffffffffffffffffffff1614610f57576040517f08c379a0000000000000000000000000000000000000000000000000000000008152600401610f4e90611890565b60405180910390fd5b806000806101000a81548173ffffffffffffffffffffffffffffffffffffffff021916908373ffffffffffffffffffffffffffffffffffffffff16021790555050565b33600560016101000a81548173ffffffffffffffffffffffffffffffffffffffff021916908373ffffffffffffffffffffffffffffffffffffffff160217905550565b600073ffffffffffffffffffffffffffffffffffffffff82169050919050565b600061100882610fdd565b9050919050565b61101881610ffd565b82525050565b6000819050919050565b6110318161101e565b82525050565b600060408201905061104c600083018561100f565b6110596020830184611028565b9392505050565b600082825260208201905092915050565b82818337600083830152505050565b6000601f19601f8301169050919050565b600061109d8385611060565b93506110aa838584611071565b6110b383611080565b840190509392505050565b60006060820190506110d3600083018761100f565b6110e06020830186611028565b81810360408301526110f3818486611091565b905095945050505050565b600080fd5b600060ff82169050919050565b61111981611103565b811461112457600080fd5b50565b60008135905061113681611110565b92915050565b600060208284031215611152576111516110fe565b5b600061116084828501611127565b91505092915050565b600060208201905061117e600083018461100f565b92915050565b60006020820190506111996000830184611028565b92915050565b6111a881610ffd565b81146111b357600080fd5b50565b6000813590506111c58161119f565b92915050565b6000602082840312156111e1576111e06110fe565b5b60006111ef848285016111b6565b91505092915050565b6112018161101e565b811461120c57600080fd5b50565b60008135905061121e816111f8565b92915050565b60006020828403121561123a576112396110fe565b5b60006112488482850161120f565b91505092915050565b600061125c82610fdd565b9050919050565b61126c81611251565b82525050565b60006020820190506112876000830184611263565b92915050565b60008115159050919050565b6112a28161128d565b82525050565b60006020820190506112bd6000830184611299565b92915050565b600081519050919050565b60005b838110156112ec5780820151818401526020810190506112d1565b838111156112fb576000848401525b50505050565b600061130c826112c3565b6113168185611060565b93506113268185602086016112ce565b61132f81611080565b840191505092915050565b600060208201905081810360008301526113548184611301565b905092915050565b6000819050919050565b61136f8161135c565b82525050565b600060208201905061138a6000830184611366565b92915050565b6000819050919050565b6113a381611390565b82525050565b60006020820190506113be600083018461139a565b92915050565b600081519050919050565b600082825260208201905092915050565b60006113eb826113c4565b6113f581856113cf565b93506114058185602086016112ce565b61140e81611080565b840191505092915050565b6000602082019050818103600083015261143381846113e0565b905092915050565b600081519050919050565b600082825260208201905092915050565b6000819050602082019050919050565b61147081610ffd565b82525050565b60006114828383611467565b60208301905092915050565b6000602082019050919050565b60006114a68261143b565b6114b08185611446565b93506114bb83611457565b8060005b838110156114ec5781516114d38882611476565b97506114de8361148e565b9250506001810190506114bf565b5085935050505092915050565b60006020820190508181036000830152611513818461149b565b905092915050565b7f43616e6e6f74207769746864726177616c206d6f7265207468616e20302e312060008201527f6574686572000000000000000000000000000000000000000000000000000000602082015250565b60006115776025836113cf565b91506115828261151b565b604082019050919050565b600060208201905081810360008301526115a68161156a565b9050919050565b7f4e487b7100000000000000000000000000000000000000000000000000000000600052601160045260246000fd5b60006115e78261101e565b91506115f28361101e565b925082821015611605576116046115ad565b5b828203905092915050565b7f4e487b7100000000000000000000000000000000000000000000000000000000600052602260045260246000fd5b6000600282049050600182168061165757607f821691505b60208210810361166a57611669611610565b5b50919050565b7f4e487b7100000000000000000000000000000000000000000000000000000000600052604160045260246000fd5b7f4e487b7100000000000000000000000000000000000000000000000000000000600052603260045260246000fd5b60006116d98261101e565b91507fffffffffffffffffffffffffffffffffffffffffffffffffffffffffffffffff820361170b5761170a6115ad565b5b600182019050919050565b7f41646420736f6d65206574680000000000000000000000000000000000000000600082015250565b600061174c600c836113cf565b915061175782611716565b602082019050919050565b6000602082019050818103600083015261177b8161173f565b9050919050565b7f416c72656164792061646465642066756e647300000000000000000000000000600082015250565b60006117b86013836113cf565b91506117c382611782565b602082019050919050565b600060208201905081810360008301526117e7816117ab565b9050919050565b60006117f98261101e565b91506118048361101e565b9250827fffffffffffffffffffffffffffffffffffffffffffffffffffffffffffffffff03821115611839576118386115ad565b5b828201905092915050565b7f4e6f74206f776e65720000000000000000000000000000000000000000000000600082015250565b600061187a6009836113cf565b915061188582611844565b602082019050919050565b600060208201905081810360008301526118a98161186d565b905091905056fea26469706673582212200b5fe8e3e535115226b8ffb92920d6bb886c4435b69e5fd779457bb5cb0b1d9264736f6c634300080d0033",
  "immutableReferences": {},
  "source": "// SPDX-License-Identifier: MIT\npragma solidity ~0.8.9;\n\nimport \"./Events.sol\";\nimport \"./IFaucet.sol\";\nimport \"./Logger.sol\";\nimport \"./Ownable.sol\";\n\n// Latest docs https://docs.soliditylang.org/en/latest/\n\n// Cheat Sheets\n// Better - https://manojpramesh.github.io/solidity-cheatsheet/\n//https://docs.soliditylang.org/en/v0.8.13/cheatsheet.html\n\n// good overall walk through\n//https://ethereum-blockchain-developer.com/000-learn-ethereum/\n\n// This code reside at the contract address\n\ncontract Faucet2 is Ownable, Logger, IFaucet, Events {\n    // ints\n    uint256 public funds = 1000; //between 0 and (2^256)-1\n    int256 public counter = -10; //  public -  visible externally and internally (creates a getter function for storage/state variables)\n    uint public numOfFunders; // same as uint256\n    uint8 private numOfFunders8; // up to 2^8-1 = 255 //  private only visible in the current contract\n\n    // address can be plain address or address payable which has transfer() and send()\n    address public lastFunder;\n    address payable public lastFunderPayable; // has transfer() and send()\n\n    mapping(address => bool) private funders; //  addresses are hex 0x46B8054543995DBee01ec6b49bcAB08494f23aA4 // 20 bytes as 40 hex values\n    mapping(address => uint256) public balances;\n    mapping(uint256 => address) private allFunders;\n\n    address[] public allFundersAlternative; // alternative using an array\n\n\n    // Strings are quirky and there are bytes and strings\n\n    // bytes\n    // A byte is 00000000 to 11111111 which is 8 bits\n    // Hex is 0x0 to 0xF or 0000 to 1111 (0 to 9 and then A to F) (base 16)\n    // Each HEX is 4 bit sequence\n    // so one byte example 0x8F = 10001111\n    // https://www.rapidtables.com/convert/number/decimal-to-hex.html\n\n    bytes public strHello = \"hello\"; // fixed-size byte arrays (bytes1 to bytes32)\n    // Each character 1 byte but not for special characters\n    // str.length === 5\n    // 68 65 6C 6C 6F or 0x68656C6C6F\n    // play https://www.rapidtables.com/convert/number/ascii-to-hex.html\n\n\n    // strings // https://ethereum-blockchain-developer.com/010-solidity-basics/05-string-types/\n    // UTF8 so expensive to compute\n    // no string functions\n    // gas implications as can be infinite size as not fixed-size (Dynamic)\n    // use if > bytes32\n    string public strWorld = \"world\";\n\n\n    // boolean\n    bool public yes = true;\n\n    // Structs\n    struct Funder {\n        address addr;\n        uint amount;\n    }\n\n    // Funder funder = Funder(addr, 10);\n    // funder.addr\n\n    mapping(uint256 => Funder) public allFundersWithStruct;\n\n    // Enums\n    enum ActionChoices {\n        GoLeft,\n        GoRight,\n        GoStraight,\n        SitStill\n    }\n\n    ActionChoices choice = ActionChoices.GoStraight;\n\n    // globals\n    //https://docs.soliditylang.org/en/v0.8.13/units-and-global-variables.html?highlight=msg\n    // msg.sender (address): sender of the message (current call)\n    // msg.value (uint): number of wei sent with the message\n    // msg.data (bytes calldata): complete calldata for a function\n    // block.timestamp (uint): current block timestamp as seconds since unix epoch\n\n    // receives ETH when you send to the contract address\n    //The receive function is executed on a call to the contract with empty calldata.\n    receive() external payable {\n        // emit the event\n        emit MoneyReceived(msg.sender, msg.value);\n    }\n\n    // receives ETH when you send to the contract address\n    // also receives msg.data\n    // called when:\n    // - none of the other functions match the given function signature\n    // - no data was supplied and no receive() present\n    fallback() external payable {\n        // emit the event\n        emit RunningFallback(msg.sender, msg.value, msg.data);\n    }\n\n    // Get the contract balance\n    function getBalance() public view returns (uint) {\n        return address(this).balance;\n    }\n\n    // payable means if you send eth to this function in the msg.value if will be added to the contract address\n    // external means only visible externally  - i.e. but can be called via this from inside the contract.\n    // internal -  only visible internally\n    // function visibility cheat sheet https://docs.soliditylang.org/en/v0.8.13/cheatsheet.html?highlight=Visibility#function-visibility-specifiers\n    function addFunds() external payable override { //uint[] calldata notCopiedToMemory\n\n        // Check condition. If false rollback\n        require(msg.value > 0, \"Add some eth\");\n        require(!funders[msg.sender], \"Already added funds\");\n\n        // fire event\n        emit AlreadyFunded(msg.sender, numOfFunders);\n\n        uint256 index = numOfFunders++;\n        funders[msg.sender] = true;\n        balances[msg.sender] = msg.value;\n        allFunders[index] = msg.sender;\n\n        // Data locations - storage memory or callData - can only be array, struct or mapping types as complex types.\n        // Variables in contracts by default are of storage\n        // https://www.youtube.com/watch?v=wOCIhzAuhgs\n        // https://www.codiesalert.com/storage-vs-memory-vs-calldata/\n\n        // Using a storage variable update the data that persist after the function finishes\n\n        allFundersWithStruct[index] = Funder(msg.sender, msg.value);\n        Funder storage funderStore = allFundersWithStruct[index];\n        funderStore.amount = msg.value + 1; // will be saved after the function finishes\n\n        // Use memory to read the data that will be lost after function completes - transient\n        Funder memory funderMem = allFundersWithStruct[index];\n        funderMem.amount = msg.value + 1; // will NOT be saved after the function finishes\n\n        // Internal function can only be run from inside contract\n        // The notCopiedToMemory param is non-modifiable storage (calldata) and not copied to memory\n        // if passed like this lastFunderFn(notCopiedToMemory);\n\n        lastFunderFn();\n    }\n\n    // internal - Can only be called inside the contract\n    // if using the notCopiedToMemory param then lastFunderFn(bool calldata notCopiedToMemory)\n    function lastFunderFn() internal {\n        lastFunder = msg.sender;\n    }\n\n\n    // Modifiers\n    modifier limitWithdrawal(uint256 withdrawAmount) {\n        require(\n            withdrawAmount <= 100000000000000000,\n            \"Cannot withdrawal more than 0.1 ether\"\n        );\n        _;\n    }\n\n    // overriding the abstract or interface\n    // Uses modifier\n    // notice we don't need to send who is withdrawing as a param, we use msg.sender and make it payable to give it transfer()\n    function withdraw(uint256 amount) external override limitWithdrawal(amount) {\n         funders[msg.sender] = false;\n         balances[msg.sender] = balances[msg.sender] - amount;\n\n        // case the sender address to a payable giving it a transfer and a send function\n        payable(msg.sender).transfer(amount);\n        emit MoneySent(msg.sender, amount);\n    }\n\n    // this is overriding and implementing abstract function\n    function abstractFunctionToImplement() public pure override returns (bytes32) {\n        return \"Hello!\";\n    }\n\n    // pure disallows modification or access of state.\n    function pureFn() external pure returns (uint256) {\n        return 2 + 2;\n    }\n\n    // view disallows modification of state\n    function viewFn() external view returns (uint256) {\n        return funds;\n    }\n\n    // returns an array of addresses that comes from memory\n    function getAllFunders() external view returns (address[] memory) {\n        address[] memory _funders = new address[](numOfFunders);\n        for (uint256 i = 0; i < numOfFunders; i++) {\n            _funders[i] = allFunders[i];\n        }\n        return _funders;\n    }\n\n    function getFunderAtIndex(uint8 i) external view returns (address) {\n        return allFunders[i];\n    }\n\n    // Uses onlyOwner modifier from the inherited Owner contract\n    // Only Owner can run this function\n    function transferOwnership(address newOwner) external onlyOwner {\n        owner = newOwner;\n    }\n\n    function getContractBalance() view public returns (uint) {\n        return address(this).balance;\n    }\n}\n\n// migrate --reset - reruns all the migrations\n\n// const i = await Faucet2.deployed()\n\n// i.addFunds([1], { from:accounts[0], value:\"2000000000000000000\" })\n// i.addFunds([1], { from:accounts[1], value:\"2000000000000000000\"})\n// i.getFunderAtIndex(0)\n// i.getAllFunders()\n\n// i.lastFunder()  // getter created automatically from lastFunder storage variable\n\n// i.addFunds([1], { from:accounts[1], value:\"2000000000000000000\"}) // this rollsback as already added funds.\n// i.withdraw('100000000000000000') // this rollsback as can't withdraw this much.\n\n// i.withdraw('100000000000000000') // this works and uses default account[0] for msg.sender\n\n// Events - Notice the logs :[..] in the output on the cmd, this is the event MoneySent\n// see event data with sender address and amount logged\n// i.withdraw('100000000000000000', {from:accounts[1]}).then(function(ret){console.log(ret.logs[0].args);})\n\n// web3.eth.getBalance(accounts[0]); // see balance\n\n// i.withdraw('100000000000000000', {from:accounts[1]}) // specify the account in msg.sender\n\n// web3.eth.getBalance(accounts[1]); // see balance\n\n// i.balances(accounts[0]) query contract storage and get back a big number\n\n// i.balances(accounts[0]).toString() // give you a promise\n\n// const b = await i.balances(accounts[0]) and then b.toString()\n\n// check the contract address balance\n//web3.eth.getBalance(i.address)\n\n// send to the contract address directly - this goes to the recieve() if it is defined.\n// Note the MoneyReceived event is fired\n// i.send(\"1000000000000000000\")\n// i.sendTransaction(\"1000000000000000000\") - same\n\n\n// TODO\n// try fallback function\n// i.sendTransaction({from: accounts[1], value: web3.utils.toWei(\"1\", 'ether')})\n// web3.eth.sendTransaction({from: accounts[0], to:i.address, value:web3.utils.toWei(\"1\", 'ether'), data:'0x06540f7e'}).then(console.log);\n\n",
  "sourcePath": "/Users/zak/Dropbox/Code/dapps/courses/solidity-blockchain-Faucet/contracts/contracts_2/Faucet2.sol",
  "compiler": {
    "name": "solc",
    "version": "0.8.13+commit.abaa5c0e.Emscripten.clang"
  },
  "schemaVersion": "3.4.4",
  "updatedAt": "2022-05-05T12:29:34.822Z",
  "networkType": "ethereum",
  "devdoc": {
    "kind": "dev",
    "methods": {},
    "version": 1
  },
  "userdoc": {
    "kind": "user",
    "methods": {},
    "version": 1
  }
}