{
  "contractName": "Faucet",
  "abi": [
    {
      "inputs": [
        {
          "internalType": "address",
          "name": "",
          "type": "address"
        }
      ],
      "name": "balances",
      "outputs": [
        {
          "internalType": "uint256",
          "name": "",
          "type": "uint256"
        }
      ],
      "stateMutability": "view",
      "type": "function",
      "constant": true
    },
    {
      "inputs": [],
      "name": "counter",
      "outputs": [
        {
          "internalType": "int256",
          "name": "",
          "type": "int256"
        }
      ],
      "stateMutability": "view",
      "type": "function",
      "constant": true
    },
    {
      "inputs": [],
      "name": "funds",
      "outputs": [
        {
          "internalType": "uint256",
          "name": "",
          "type": "uint256"
        }
      ],
      "stateMutability": "view",
      "type": "function",
      "constant": true
    },
    {
      "inputs": [],
      "name": "numOfFunders",
      "outputs": [
        {
          "internalType": "uint256",
          "name": "",
          "type": "uint256"
        }
      ],
      "stateMutability": "view",
      "type": "function",
      "constant": true
    },
    {
      "inputs": [],
      "name": "owner",
      "outputs": [
        {
          "internalType": "address",
          "name": "",
          "type": "address"
        }
      ],
      "stateMutability": "view",
      "type": "function",
      "constant": true
    },
    {
      "inputs": [],
      "name": "testNum",
      "outputs": [
        {
          "internalType": "uint256",
          "name": "",
          "type": "uint256"
        }
      ],
      "stateMutability": "view",
      "type": "function",
      "constant": true
    },
    {
      "stateMutability": "payable",
      "type": "receive",
      "payable": true
    },
    {
      "inputs": [],
      "name": "emitLog",
      "outputs": [
        {
          "internalType": "bytes32",
          "name": "",
          "type": "bytes32"
        }
      ],
      "stateMutability": "pure",
      "type": "function",
      "constant": true
    },
    {
      "inputs": [],
      "name": "addFunds",
      "outputs": [],
      "stateMutability": "payable",
      "type": "function",
      "payable": true
    },
    {
      "inputs": [],
      "name": "pureFn",
      "outputs": [
        {
          "internalType": "uint256",
          "name": "",
          "type": "uint256"
        }
      ],
      "stateMutability": "pure",
      "type": "function",
      "constant": true
    },
    {
      "inputs": [],
      "name": "viewFn",
      "outputs": [
        {
          "internalType": "uint256",
          "name": "",
          "type": "uint256"
        }
      ],
      "stateMutability": "view",
      "type": "function",
      "constant": true
    },
    {
      "inputs": [],
      "name": "getAllFunders",
      "outputs": [
        {
          "internalType": "address[]",
          "name": "",
          "type": "address[]"
        }
      ],
      "stateMutability": "view",
      "type": "function",
      "constant": true
    },
    {
      "inputs": [
        {
          "internalType": "uint8",
          "name": "i",
          "type": "uint8"
        }
      ],
      "name": "getFunderAtIndex",
      "outputs": [
        {
          "internalType": "address",
          "name": "",
          "type": "address"
        }
      ],
      "stateMutability": "view",
      "type": "function",
      "constant": true
    },
    {
      "inputs": [
        {
          "internalType": "uint256",
          "name": "amount",
          "type": "uint256"
        }
      ],
      "name": "withdraw",
      "outputs": [],
      "stateMutability": "nonpayable",
      "type": "function"
    },
    {
      "inputs": [],
      "name": "test1",
      "outputs": [],
      "stateMutability": "nonpayable",
      "type": "function"
    },
    {
      "inputs": [],
      "name": "test2",
      "outputs": [],
      "stateMutability": "nonpayable",
      "type": "function"
    },
    {
      "inputs": [
        {
          "internalType": "address",
          "name": "newOwner",
          "type": "address"
        }
      ],
      "name": "transferOwnership",
      "outputs": [],
      "stateMutability": "nonpayable",
      "type": "function"
    }
  ],
  "bytecode": "0x6080604052336000806101000a81548173ffffffffffffffffffffffffffffffffffffffff021916908373ffffffffffffffffffffffffffffffffffffffff1602179055506103e86002557ffffffffffffffffffffffffffffffffffffffffffffffffffffffffffffffff660035534801561007a57600080fd5b506103e8600181905550610df7806100936000396000f3fe6080604052600436106100f75760003560e01c80637b53f7211161008a578063af7f2c9b11610059578063af7f2c9b146102e0578063c89f2ce41461030b578063f2fde38b14610336578063f42c13bf1461035f576100fe565b80637b53f721146102555780638da5cb5b14610280578063a26759cb146102ab578063ae28f1ed146102b5576100fe565b806366e41cb7116100c657806366e41cb7146101d1578063671ebb98146101e85780636b59084d146102135780636fbbb55d1461022a576100fe565b80630a93cf331461010357806327e235e3146101405780632e1a7d4d1461017d57806361bc221a146101a6576100fe565b366100fe57005b600080fd5b34801561010f57600080fd5b5061012a60048036038101906101259190610925565b61038a565b6040516101379190610993565b60405180910390f35b34801561014c57600080fd5b50610167600480360381019061016291906109da565b6103ca565b6040516101749190610a20565b60405180910390f35b34801561018957600080fd5b506101a4600480360381019061019f9190610a67565b6103e2565b005b3480156101b257600080fd5b506101bb610479565b6040516101c89190610aad565b60405180910390f35b3480156101dd57600080fd5b506101e661047f565b005b3480156101f457600080fd5b506101fd61050f565b60405161020a9190610a20565b60405180910390f35b34801561021f57600080fd5b50610228610519565b005b34801561023657600080fd5b5061023f6105a9565b60405161024c9190610b86565b60405180910390f35b34801561026157600080fd5b5061026a6106a3565b6040516102779190610a20565b60405180910390f35b34801561028c57600080fd5b506102956106ac565b6040516102a29190610993565b60405180910390f35b6102b36106d0565b005b3480156102c157600080fd5b506102ca6107dc565b6040516102d79190610a20565b60405180910390f35b3480156102ec57600080fd5b506102f56107e2565b6040516103029190610a20565b60405180910390f35b34801561031757600080fd5b506103206107e8565b60405161032d9190610a20565b60405180910390f35b34801561034257600080fd5b5061035d600480360381019061035891906109da565b6107ee565b005b34801561036b57600080fd5b506103746108bf565b6040516103819190610bc1565b60405180910390f35b6000600660008360ff16815260200190815260200160002060009054906101000a900473ffffffffffffffffffffffffffffffffffffffff169050919050565b60076020528060005260406000206000915090505481565b8067016345785d8a000081111561042e576040517f08c379a000000000000000000000000000000000000000000000000000000000815260040161042590610c5f565b60405180910390fd5b3373ffffffffffffffffffffffffffffffffffffffff166108fc839081150290604051600060405180830381858888f19350505050158015610474573d6000803e3d6000fd5b505050565b60035481565b60008054906101000a900473ffffffffffffffffffffffffffffffffffffffff1673ffffffffffffffffffffffffffffffffffffffff163373ffffffffffffffffffffffffffffffffffffffff161461050d576040517f08c379a000000000000000000000000000000000000000000000000000000000815260040161050490610ccb565b60405180910390fd5b565b6000600254905090565b60008054906101000a900473ffffffffffffffffffffffffffffffffffffffff1673ffffffffffffffffffffffffffffffffffffffff163373ffffffffffffffffffffffffffffffffffffffff16146105a7576040517f08c379a000000000000000000000000000000000000000000000000000000000815260040161059e90610ccb565b60405180910390fd5b565b6060600060045467ffffffffffffffff8111156105c9576105c8610ceb565b5b6040519080825280602002602001820160405280156105f75781602001602082028036833780820191505090505b50905060005b60045481101561069b576006600082815260200190815260200160002060009054906101000a900473ffffffffffffffffffffffffffffffffffffffff1682828151811061064e5761064d610d1a565b5b602002602001019073ffffffffffffffffffffffffffffffffffffffff16908173ffffffffffffffffffffffffffffffffffffffff1681525050808061069390610d78565b9150506105fd565b508091505090565b60006004905090565b60008054906101000a900473ffffffffffffffffffffffffffffffffffffffff1681565b6000600460008154809291906106e590610d78565b9190505590506001600560003373ffffffffffffffffffffffffffffffffffffffff1673ffffffffffffffffffffffffffffffffffffffff16815260200190815260200160002060006101000a81548160ff02191690831515021790555034600760003373ffffffffffffffffffffffffffffffffffffffff1673ffffffffffffffffffffffffffffffffffffffff16815260200190815260200160002081905550336006600083815260200190815260200160002060006101000a81548173ffffffffffffffffffffffffffffffffffffffff021916908373ffffffffffffffffffffffffffffffffffffffff16021790555050565b60015481565b60045481565b60025481565b60008054906101000a900473ffffffffffffffffffffffffffffffffffffffff1673ffffffffffffffffffffffffffffffffffffffff163373ffffffffffffffffffffffffffffffffffffffff161461087c576040517f08c379a000000000000000000000000000000000000000000000000000000000815260040161087390610ccb565b60405180910390fd5b806000806101000a81548173ffffffffffffffffffffffffffffffffffffffff021916908373ffffffffffffffffffffffffffffffffffffffff16021790555050565b60007f48656c6c6f210000000000000000000000000000000000000000000000000000905090565b600080fd5b600060ff82169050919050565b610902816108ec565b811461090d57600080fd5b50565b60008135905061091f816108f9565b92915050565b60006020828403121561093b5761093a6108e7565b5b600061094984828501610910565b91505092915050565b600073ffffffffffffffffffffffffffffffffffffffff82169050919050565b600061097d82610952565b9050919050565b61098d81610972565b82525050565b60006020820190506109a86000830184610984565b92915050565b6109b781610972565b81146109c257600080fd5b50565b6000813590506109d4816109ae565b92915050565b6000602082840312156109f0576109ef6108e7565b5b60006109fe848285016109c5565b91505092915050565b6000819050919050565b610a1a81610a07565b82525050565b6000602082019050610a356000830184610a11565b92915050565b610a4481610a07565b8114610a4f57600080fd5b50565b600081359050610a6181610a3b565b92915050565b600060208284031215610a7d57610a7c6108e7565b5b6000610a8b84828501610a52565b91505092915050565b6000819050919050565b610aa781610a94565b82525050565b6000602082019050610ac26000830184610a9e565b92915050565b600081519050919050565b600082825260208201905092915050565b6000819050602082019050919050565b610afd81610972565b82525050565b6000610b0f8383610af4565b60208301905092915050565b6000602082019050919050565b6000610b3382610ac8565b610b3d8185610ad3565b9350610b4883610ae4565b8060005b83811015610b79578151610b608882610b03565b9750610b6b83610b1b565b925050600181019050610b4c565b5085935050505092915050565b60006020820190508181036000830152610ba08184610b28565b905092915050565b6000819050919050565b610bbb81610ba8565b82525050565b6000602082019050610bd66000830184610bb2565b92915050565b600082825260208201905092915050565b7f43616e6e6f74207769746864726177616c206d6f7265207468616e20302e312060008201527f6574686572000000000000000000000000000000000000000000000000000000602082015250565b6000610c49602583610bdc565b9150610c5482610bed565b604082019050919050565b60006020820190508181036000830152610c7881610c3c565b9050919050565b7f4e6f74206f776e65720000000000000000000000000000000000000000000000600082015250565b6000610cb5600983610bdc565b9150610cc082610c7f565b602082019050919050565b60006020820190508181036000830152610ce481610ca8565b9050919050565b7f4e487b7100000000000000000000000000000000000000000000000000000000600052604160045260246000fd5b7f4e487b7100000000000000000000000000000000000000000000000000000000600052603260045260246000fd5b7f4e487b7100000000000000000000000000000000000000000000000000000000600052601160045260246000fd5b6000610d8382610a07565b91507fffffffffffffffffffffffffffffffffffffffffffffffffffffffffffffffff821415610db657610db5610d49565b5b60018201905091905056fea2646970667358221220df070abeb27ed3c1138ed2dc81a115ca6421009ab99c3e36c5eb7a36c051f78d64736f6c634300080a0033",
  "immutableReferences": {},
  "source": "// SPDX-License-Identifier: MIT\npragma solidity ~0.8.9;\n\nimport \"./IFaucet.sol\";\n\nimport \"./Ownable.sol\";\nimport \"./Logger.sol\";\n\ncontract Faucet is Ownable, Logger, IFaucet {\n    uint256 public funds = 1000;\n    int256 public counter = -10;\n    uint256 public numOfFunders;\n    mapping(address => bool) private funders;\n    mapping(uint256 => address) private lutFunders;\n    mapping(address => uint256) public balances;\n\n    //event alreadyFunded(address sender, uint numOfFunders);\n\n    modifier limitWithdrawal(uint256 withdrawAmount) {\n        require(\n            withdrawAmount <= 100000000000000000,\n            \"Cannot withdrawal more than 0.1 ether\"\n        );\n        _;\n    }\n\n    receive() external payable {}\n\n    function emitLog() public pure override returns (bytes32) {\n        return \"Hello!\";\n    }\n\n    function addFunds() external payable override {\n        //require(!funders[msg.sender], \"Already added funds\"); // should be able to do thi.\n        // emit alreadyFunded(msg.sender, numOfFunders);\n        uint256 index = numOfFunders++;\n        funders[msg.sender] = true;\n        balances[msg.sender] = msg.value;\n        lutFunders[index] = msg.sender;\n    }\n\n    function pureFn() external pure returns (uint256) {\n        return 2 + 2;\n    }\n\n    function viewFn() external view returns (uint256) {\n        return funds;\n    }\n\n    function getAllFunders() external view returns (address[] memory) {\n        address[] memory _funders = new address[](numOfFunders);\n        for (uint256 i = 0; i < numOfFunders; i++) {\n            _funders[i] = lutFunders[i];\n        }\n        return _funders;\n    }\n\n    function getFunderAtIndex(uint8 i) external view returns (address) {\n        return lutFunders[i];\n    }\n\n    function withdraw(uint256 amount)\n        external\n        override\n        limitWithdrawal(amount)\n    {\n        // funders[msg.sender] = false;\n        // balances[msg.sender] = balances[msg.sender] - amount;\n        payable(msg.sender).transfer(amount);\n    }\n\n    function test1() external onlyOwner {\n        // some managing stuff that only admin should have access to\n    }\n\n    function test2() external onlyOwner {\n        // some managing stuff that only admin should have access to\n    }\n\n    function transferOwnership(address newOwner) external onlyOwner {\n        owner = newOwner;\n    }\n}\n\n// migrate --reset\n//const i = await Faucet.deployed()     100000000000000000\n//i.addFunds({ from:accounts[0], value:\"2000000000000000000\" })\n//i.addFunds({ from:accounts[1], value:\"1000000000000000000000000000000000000\" })\n//i.getFunderAtIndex(0)\n// i.getAllFunders()\n\n// i.withdraw('2000000000000000000')\n// i.test1()\n// web3.eth.getBalance(walletAddress);\n",
  "sourcePath": "/Users/zak/Dropbox/dapps/solidity-blockchain-nextjs/contracts/Faucet.sol",
  "compiler": {
    "name": "solc",
    "version": "0.8.10+commit.fc410830.Emscripten.clang"
  },
  "schemaVersion": "3.4.3",
  "updatedAt": "2021-11-14T14:05:41.297Z",
  "networkType": "ethereum",
  "devdoc": {
    "kind": "dev",
    "methods": {},
    "version": 1
  },
  "userdoc": {
    "kind": "user",
    "methods": {},
    "version": 1
  }
}