{
  "contractName": "Faucet",
  "abi": [
    {
      "inputs": [
        {
          "internalType": "address",
          "name": "",
          "type": "address"
        }
      ],
      "name": "fundsByAddress",
      "outputs": [
        {
          "internalType": "uint256",
          "name": "",
          "type": "uint256"
        }
      ],
      "stateMutability": "view",
      "type": "function",
      "constant": true
    },
    {
      "stateMutability": "payable",
      "type": "receive",
      "payable": true
    },
    {
      "inputs": [],
      "name": "addFunds",
      "outputs": [],
      "stateMutability": "payable",
      "type": "function",
      "payable": true
    },
    {
      "inputs": [
        {
          "internalType": "uint256",
          "name": "amount",
          "type": "uint256"
        }
      ],
      "name": "withdraw",
      "outputs": [],
      "stateMutability": "nonpayable",
      "type": "function"
    },
    {
      "inputs": [],
      "name": "getFundersBalance",
      "outputs": [
        {
          "internalType": "uint256",
          "name": "",
          "type": "uint256"
        }
      ],
      "stateMutability": "view",
      "type": "function",
      "constant": true
    }
  ],
  "bytecode": "0x608060405234801561001057600080fd5b506105aa806100206000396000f3fe6080604052600436106100435760003560e01c806301ce4e891461004f5780631205fa5e1461007a5780632e1a7d4d146100b7578063a26759cb146100e05761004a565b3661004a57005b600080fd5b34801561005b57600080fd5b506100646100ea565b6040516100719190610314565b60405180910390f35b34801561008657600080fd5b506100a1600480360381019061009c9190610392565b610130565b6040516100ae9190610314565b60405180910390f35b3480156100c357600080fd5b506100de60048036038101906100d991906103eb565b610148565b005b6100e8610267565b005b60008060003373ffffffffffffffffffffffffffffffffffffffff1673ffffffffffffffffffffffffffffffffffffffff16815260200190815260200160002054905090565b60006020528060005260406000206000915090505481565b60008060003373ffffffffffffffffffffffffffffffffffffffff1673ffffffffffffffffffffffffffffffffffffffff168152602001908152602001600020549050818110156101ce576040517f08c379a00000000000000000000000000000000000000000000000000000000081526004016101c59061049b565b60405180910390fd5b81816101da91906104ea565b6000803373ffffffffffffffffffffffffffffffffffffffff1673ffffffffffffffffffffffffffffffffffffffff168152602001908152602001600020819055503373ffffffffffffffffffffffffffffffffffffffff166108fc839081150290604051600060405180830381858888f19350505050158015610262573d6000803e3d6000fd5b505050565b60008060003373ffffffffffffffffffffffffffffffffffffffff1673ffffffffffffffffffffffffffffffffffffffff16815260200190815260200160002054905034816102b6919061051e565b6000803373ffffffffffffffffffffffffffffffffffffffff1673ffffffffffffffffffffffffffffffffffffffff1681526020019081526020016000208190555050565b6000819050919050565b61030e816102fb565b82525050565b60006020820190506103296000830184610305565b92915050565b600080fd5b600073ffffffffffffffffffffffffffffffffffffffff82169050919050565b600061035f82610334565b9050919050565b61036f81610354565b811461037a57600080fd5b50565b60008135905061038c81610366565b92915050565b6000602082840312156103a8576103a761032f565b5b60006103b68482850161037d565b91505092915050565b6103c8816102fb565b81146103d357600080fd5b50565b6000813590506103e5816103bf565b92915050565b6000602082840312156104015761040061032f565b5b600061040f848285016103d6565b91505092915050565b600082825260208201905092915050565b7f43616e6e6f74207769746864726177616c206d6f7265207468616e20796f752060008201527f6861766500000000000000000000000000000000000000000000000000000000602082015250565b6000610485602483610418565b915061049082610429565b604082019050919050565b600060208201905081810360008301526104b481610478565b9050919050565b7f4e487b7100000000000000000000000000000000000000000000000000000000600052601160045260246000fd5b60006104f5826102fb565b9150610500836102fb565b925082821015610513576105126104bb565b5b828203905092915050565b6000610529826102fb565b9150610534836102fb565b9250827fffffffffffffffffffffffffffffffffffffffffffffffffffffffffffffffff03821115610569576105686104bb565b5b82820190509291505056fea2646970667358221220069686d127a8359fb1020f7bfda8c7f17b550fe9484d933e231b6440fc3e7f4664736f6c634300080d0033",
  "immutableReferences": {},
  "source": "// SPDX-License-Identifier: MIT\npragma solidity ~0.8.9;\n\n// balance on address\n\ncontract Faucet  {\n\n    mapping(address => uint256) public fundsByAddress;\n\n    // This will add to the contracts balance\n    function addFunds() external payable {\n        uint256 senderFunds =  fundsByAddress[msg.sender];\n        fundsByAddress[msg.sender] = senderFunds + msg.value;\n    }\n\n    // This will withdraw to the contracts balance\n    function withdraw(uint256 amount) external {\n        uint256 senderFunds =  fundsByAddress[msg.sender];\n        require(\n            senderFunds >= amount,\n            \"Cannot withdrawal more than you have\"\n        );\n\n        fundsByAddress[msg.sender] = senderFunds - amount;\n\n        payable(msg.sender).transfer(amount);\n    }\n\n    function getFundersBalance() external view returns (uint256) {\n        return fundsByAddress[msg.sender];\n    }\n\n    // receives ETH when you send to the contract address\n    receive() external payable {}\n\n}\n\n",
  "sourcePath": "/Users/zak/Dropbox/Code/dapps/courses/solidity-blockchain-Faucet/contracts/Faucet.sol",
  "compiler": {
    "name": "solc",
    "version": "0.8.13+commit.abaa5c0e.Emscripten.clang"
  },
  "schemaVersion": "3.4.4",
  "updatedAt": "2022-05-05T12:29:34.272Z",
  "networkType": "ethereum",
  "devdoc": {
    "kind": "dev",
    "methods": {},
    "version": 1
  },
  "userdoc": {
    "kind": "user",
    "methods": {},
    "version": 1
  }
}