{
  "contractName": "Storage",
  "abi": [
    {
      "inputs": [],
      "stateMutability": "nonpayable",
      "type": "constructor"
    },
    {
      "inputs": [],
      "name": "a",
      "outputs": [
        {
          "internalType": "uint8",
          "name": "",
          "type": "uint8"
        }
      ],
      "stateMutability": "view",
      "type": "function"
    },
    {
      "inputs": [
        {
          "internalType": "uint256",
          "name": "",
          "type": "uint256"
        }
      ],
      "name": "aa",
      "outputs": [
        {
          "internalType": "uint256",
          "name": "",
          "type": "uint256"
        }
      ],
      "stateMutability": "view",
      "type": "function"
    },
    {
      "inputs": [],
      "name": "b",
      "outputs": [
        {
          "internalType": "uint8",
          "name": "",
          "type": "uint8"
        }
      ],
      "stateMutability": "view",
      "type": "function"
    },
    {
      "inputs": [
        {
          "internalType": "address",
          "name": "",
          "type": "address"
        }
      ],
      "name": "bb",
      "outputs": [
        {
          "internalType": "uint256",
          "name": "",
          "type": "uint256"
        }
      ],
      "stateMutability": "view",
      "type": "function"
    },
    {
      "inputs": [],
      "name": "c",
      "outputs": [
        {
          "internalType": "address",
          "name": "",
          "type": "address"
        }
      ],
      "stateMutability": "view",
      "type": "function"
    },
    {
      "inputs": [
        {
          "internalType": "uint256",
          "name": "",
          "type": "uint256"
        }
      ],
      "name": "cc",
      "outputs": [
        {
          "internalType": "uint256",
          "name": "",
          "type": "uint256"
        }
      ],
      "stateMutability": "view",
      "type": "function"
    },
    {
      "inputs": [],
      "name": "d",
      "outputs": [
        {
          "internalType": "bool",
          "name": "",
          "type": "bool"
        }
      ],
      "stateMutability": "view",
      "type": "function"
    },
    {
      "inputs": [],
      "name": "e",
      "outputs": [
        {
          "internalType": "uint64",
          "name": "",
          "type": "uint64"
        }
      ],
      "stateMutability": "view",
      "type": "function"
    },
    {
      "inputs": [],
      "name": "f",
      "outputs": [
        {
          "internalType": "uint256",
          "name": "",
          "type": "uint256"
        }
      ],
      "stateMutability": "view",
      "type": "function"
    },
    {
      "inputs": [],
      "name": "g",
      "outputs": [
        {
          "internalType": "uint8",
          "name": "",
          "type": "uint8"
        }
      ],
      "stateMutability": "view",
      "type": "function"
    },
    {
      "inputs": [],
      "name": "h",
      "outputs": [
        {
          "internalType": "uint256",
          "name": "",
          "type": "uint256"
        }
      ],
      "stateMutability": "view",
      "type": "function"
    }
  ],
  "bytecode": "0x60806040526007600360006101000a81548160ff021916908360ff160217905550600a600360016101000a81548160ff021916908360ff16021790555073b67c511e8de416790ae1bccadbf79053aad14d3b600360026101000a81548173ffffffffffffffffffffffffffffffffffffffff021916908373ffffffffffffffffffffffffffffffffffffffff1602179055506001600360166101000a81548160ff021916908315150217905550600f600360176101000a81548167ffffffffffffffff021916908367ffffffffffffffff16021790555060c86004556028600560006101000a81548160ff021916908360ff16021790555061031560065534801561010957600080fd5b506002600190806001815401808255809150506001900390600052602060002001600090919091909150556002600a908060018154018082558091505060019003906000526020600020016000909190919091505560026064908060018154018082558091505060019003906000526020600020016000909190919091505560046000806002815260200190815260200160002081905550600a600080600381526020019081526020016000208190555060646001600073b67c511e8de416790ae1bccadbf79053aad14d3b73ffffffffffffffffffffffffffffffffffffffff1673ffffffffffffffffffffffffffffffffffffffff16815260200190815260200160002081905550610542806102226000396000f3fe608060405234801561001057600080fd5b50600436106100a95760003560e01c8063b8c9d36511610071578063b8c9d36514610156578063c3da42b814610174578063e1d9bbbd14610192578063e2179b8e146101c2578063eb366c13146101e0578063ffae15ba14610210576100a9565b80630dbe671f146100ae57806326121ff0146100cc5780634df7e3d0146100ea5780637323febe146101085780638a054ac214610138575b600080fd5b6100b661022e565b6040516100c39190610336565b60405180910390f35b6100d4610241565b6040516100e1919061036a565b60405180910390f35b6100f2610247565b6040516100ff9190610336565b60405180910390f35b610122600480360381019061011d91906103b6565b61025a565b60405161012f919061036a565b60405180910390f35b610140610272565b60405161014d91906103fe565b60405180910390f35b61015e610285565b60405161016b919061036a565b60405180910390f35b61017c61028b565b604051610189919061045a565b60405180910390f35b6101ac60048036038101906101a791906104a1565b6102b1565b6040516101b9919061036a565b60405180910390f35b6101ca6102c9565b6040516101d79190610336565b60405180910390f35b6101fa60048036038101906101f591906103b6565b6102dc565b604051610207919061036a565b60405180910390f35b610218610300565b60405161022591906104f1565b60405180910390f35b600360009054906101000a900460ff1681565b60045481565b600360019054906101000a900460ff1681565b60006020528060005260406000206000915090505481565b600360169054906101000a900460ff1681565b60065481565b600360029054906101000a900473ffffffffffffffffffffffffffffffffffffffff1681565b60016020528060005260406000206000915090505481565b600560009054906101000a900460ff1681565b600281815481106102ec57600080fd5b906000526020600020016000915090505481565b600360179054906101000a900467ffffffffffffffff1681565b600060ff82169050919050565b6103308161031a565b82525050565b600060208201905061034b6000830184610327565b92915050565b6000819050919050565b61036481610351565b82525050565b600060208201905061037f600083018461035b565b92915050565b600080fd5b61039381610351565b811461039e57600080fd5b50565b6000813590506103b08161038a565b92915050565b6000602082840312156103cc576103cb610385565b5b60006103da848285016103a1565b91505092915050565b60008115159050919050565b6103f8816103e3565b82525050565b600060208201905061041360008301846103ef565b92915050565b600073ffffffffffffffffffffffffffffffffffffffff82169050919050565b600061044482610419565b9050919050565b61045481610439565b82525050565b600060208201905061046f600083018461044b565b92915050565b61047e81610439565b811461048957600080fd5b50565b60008135905061049b81610475565b92915050565b6000602082840312156104b7576104b6610385565b5b60006104c58482850161048c565b91505092915050565b600067ffffffffffffffff82169050919050565b6104eb816104ce565b82525050565b600060208201905061050660008301846104e2565b9291505056fea2646970667358221220f3a00a401c2c073b0e5f88e1e9f31bd5620eac54a00cdf44c3a7783466a4f71e64736f6c634300080a0033",
  "immutableReferences": {},
  "source": "// SPDX-License-Identifier: MIT\npragma solidity ~0.8.9;\n\ncontract Storage {\n    mapping(uint256 => uint256) public aa; // slot 0\n    mapping(address => uint256) public bb; // slot 1\n\n    uint256[] public cc; // slot 2\n\n    uint8 public a = 7;\n    uint8 public b = 10;\n    address public c = 0xb67c511e8DE416790Ae1bCCADBF79053AaD14D3B;\n    bool public d = true;\n    uint64 public e = 15; // slot 3\n\n    uint256 public f = 200;\n\n    uint8 public g = 40;\n    uint256 public h = 789;\n\n    constructor() {\n        cc.push(1);\n        cc.push(10);\n        cc.push(100);\n\n        aa[2] = 4;\n        aa[3] = 10;\n        bb[0xb67c511e8DE416790Ae1bCCADBF79053AaD14D3B] = 100;\n    }\n}\n\n//c9513c7232310bb102320b17488c50b8829d9e6bc99d470f591534284f94929c\n\n//1100100101010001001111000111001000110010001100010000101110110001000000100011001000001011000101110100100010001100010100001011100010000010100111011001111001101011110010011001110101000111000011110101100100010101001101000010100001001111100101001001001010011100\n",
  "sourcePath": "/Users/zak/Dropbox/dapps/solidity-blockchain-nextjs/contracts/Storage.sol",
  "compiler": {
    "name": "solc",
    "version": "0.8.10+commit.fc410830.Emscripten.clang"
  },
  "schemaVersion": "3.4.3",
  "updatedAt": "2021-11-14T14:05:41.639Z",
  "networkType": "ethereum",
  "devdoc": {
    "kind": "dev",
    "methods": {},
    "version": 1
  },
  "userdoc": {
    "kind": "user",
    "methods": {},
    "version": 1
  }
}