{
  "contractName": "Test",
  "abi": [
    {
      "inputs": [],
      "name": "addFunds",
      "outputs": [],
      "stateMutability": "payable",
      "type": "function",
      "payable": true
    }
  ],
  "bytecode": "0x6080604052348015600f57600080fd5b50606180601d6000396000f3fe608060405260043610601c5760003560e01c8063a26759cb146021575b600080fd5b60276029565b005b56fea26469706673582212204dabaf406808fc29801f05ac8ebfeb47e74db9f17d8e3a18974029e4d38c604264736f6c634300080a0033",
  "deployedBytecode": "0x608060405260043610601c5760003560e01c8063a26759cb146021575b600080fd5b60276029565b005b56fea26469706673582212204dabaf406808fc29801f05ac8ebfeb47e74db9f17d8e3a18974029e4d38c604264736f6c634300080a0033",
  "immutableReferences": {},
  "source": "// SPDX-License-Identifier: MIT\npragma solidity ~0.8.9;\n\ncontract Test {\n    function addFunds() external payable {}\n}\n",
  "sourcePath": "/Users/zak/Dropbox/dapps/solidity-blockchain-nextjs/contracts/test.sol",
  "compiler": {
    "name": "solc",
    "version": "0.8.10+commit.fc410830.Emscripten.clang"
  },
  "schemaVersion": "3.4.3",
  "updatedAt": "2021-11-14T14:05:41.641Z",
  "networkType": "ethereum",
  "devdoc": {
    "kind": "dev",
    "methods": {},
    "version": 1
  },
  "userdoc": {
    "kind": "user",
    "methods": {},
    "version": 1
  }
}